:100000000C9462000C948A000C948A000C948A0070
:100010000C948A000C948A000C948A000C948A0038
:100020000C948A000C948A000C948A000C948A0028
:100030000C948A000C948A000C948A000C948A0018
:100040000C94A0060C948A000C946E060C9448063E
:100050000C948A000C948A000C948A000C948A00F8
:100060000C948A000C948A000000000024002700F1
:100070002A0000000000250028002B0000000000DE
:1000800023002600290004040404040404040202DA
:100090000202020203030303030301020408102007
:1000A0004080010204081020010204081020000012
:1000B0000008000201000003040700000000000027
:1000C0000000EA0611241FBECFEFD8E0DEBFCDBF8F
:1000D00011E0A0E0B1E0E8EBF1E102C005900D9283
:1000E000A435B107D9F722E0A4E5B1E001C01D9223
:1000F000A138B207E1F710E0C2E6D0E004C02197D2
:10010000FE010E94D408C136D107C9F70E94A30797
:100110000C94DA080C94000096E0899FD001112419
:10012000A650BE4F90967C936E935F9791E0919608
:100130009C939197E0916702F0916802909166021A
:10014000992339F0309751F0811108C0809116023F
:100150000994309719F05C968C91FACF0895CF925C
:10016000DF92EF92FF920F931F9396E0899FF00129
:100170001124E650FE4F11A2278D30A12130310508
:1001800051F178F02230310509F451C023303105A6
:1001900009F452C01F910F91FF90EF90DF90CF9024
:1001A00008956623B9F361E070E00E948C002FB7D8
:1001B000F8948091590190915A01A0915B01B091FE
:1001C0005C012FBF8093520290935302A09354027C
:1001D000B0935502DFCF9FB7F894C0905901D090EB
:1001E0005A01E0905B01F0905C019FBF00915202C8
:1001F000109153022091540230915502C01AD10A35
:10020000E20AF30A009164021091650230E020E0F6
:100210000C151D052E053F0550F462E070E01F919E
:100220000F91FF90EF90DF90CF900C948C006111B4
:10023000B1CF63E070E0F3CF70E060E0F0CFAF9259
:10024000BF92CF92DF92EF92FF920F931F93CF93C3
:10025000DF936C017B018B01040F151FEB015E0125
:10026000AE18BF08C017D10759F06991D601ED91BA
:10027000FC910190F081E02DC6010995892B79F759
:10028000C501DF91CF911F910F91FF90EF90DF900B
:10029000CF90BF90AF900895FC01538D448D252FD2
:1002A00030E0842F90E0821B930B541710F0CF9610
:1002B000089501970895FC01918D828D981761F042
:1002C000A28DAE0FBF2FB11D5D968C91928D9F5F59
:1002D0009F73928F90E008958FEF9FEF0895FC0138
:1002E000918D828D981731F0828DE80FF11D858DEB
:1002F00090E008958FEF9FEF0895FC01918D228D7E
:10030000892F90E0805C9F4F821B91098F73992702
:1003100008958DE591E00E947D0121E0892B09F48B
:1003200020E0822F089580E090E0892B29F00E9440
:10033000890181110C9400000895FC01A48DA80F7F
:10034000B92FB11DA35ABF4F2C91848D90E0019617
:100350008F739927848FA689B7892C93A089B18937
:100360008C91837080648C93938D848D981306C0D8
:100370000288F389E02D80818F7D80830895EF923C
:10038000FF920F931F93CF93DF93EC0181E0888F4F
:100390009B8D8C8D98131AC0E889F989808185FF1F
:1003A00015C09FB7F894EE89FF896083E889F989C1
:1003B00080818370806480839FBF81E090E0DF91C3
:1003C000CF911F910F91FF90EF900895F62E0B8D16
:1003D00010E00F5F1F4F0F731127E02E8C8D8E11D1
:1003E0000CC00FB607FCFACFE889F989808185FF38
:1003F000F5CFCE010E949D01F1CFEB8DEC0FFD2FCB
:10040000F11DE35AFF4FF0829FB7F8940B8FEA89F2
:10041000FB8980818062CFCFCF93DF93EC01888D01
:100420008823B9F0AA89BB89E889F9898C9185FD6F
:1004300003C0808186FD0DC00FB607FCF7CF8C91FD
:1004400085FFF2CF808185FFEDCFCE010E949D0117
:10045000E9CFDF91CF910895833081F028F4813086
:1004600099F08230A9F008958730A9F08830C9F05A
:100470008430B1F4809180008F7D03C08091800032
:100480008F7780938000089584B58F7784BD089519
:1004900084B58F7DFBCF8091B0008F778093B000C3
:1004A00008958091B0008F7DF9CFCF93DF93282FEF
:1004B00030E0F901E255FF4F8491F901E656FF4F14
:1004C000D491F901EA57FF4FC491CC23A1F08111D7
:1004D0000E942C02EC2FF0E0EE0FFF1FE458FF4FBC
:1004E000A591B491EC91ED2381E090E009F480E0D6
:1004F000DF91CF91089580E090E0FACF862F0C94A1
:1005000055021F93CF93DF93282F30E0F901E25576
:10051000FF4F8491F901E656FF4FD491F901EA5754
:10052000FF4FC491CC23A9F0162F81110E942C02F9
:10053000EC2FF0E0EE0FFF1FEE58FF4FA591B491A6
:100540008FB7F894EC91111108C0D095DE23DC939D
:100550008FBFDF91CF911F910895DE2BF8CF862FAB
:10056000642F0C948102CF93DF9390E0FC01E65658
:10057000FF4F24918A579F4FFC0184918823C9F033
:1005800090E0880F991FFC01E859FF4FA591B491A5
:10059000FC01EE58FF4FC591D49161110DC09FB77A
:1005A000F8948C91209582238C938881282328832A
:1005B0009FBFDF91CF910895623051F49FB7F894B7
:1005C0003C91822F809583238C93E8812E2BEFCF53
:1005D0008FB7F894EC912E2B2C938FBFEACF862FF8
:1005E000642F0C94B3026F927F928F929F92AF927E
:1005F000BF92CF92DF92EF92FF920F931F93CF9310
:10060000DF9381E0809366028FB7F894409159019F
:1006100050915A0160915B0170915C018FBF809194
:10062000560290915702A0915802B0915902481B6E
:10063000590B6A0B7B0B8091620290916302B0E0D0
:10064000A0E084179507A607B70708F01DC1C0E012
:1006500080916002C81760F4E0915C02F0915D0245
:10066000EC0FF11D62E080810E94B302CF5FF0CFFA
:10067000712C812C912C5401839480916102781605
:1006800008F05FC0072D10E0E0915E02F0915F027C
:10069000E00FF11F61E080810E94B302E0915E02F1
:1006A000F0915F02E00FF11F60E080810E94810203
:1006B000D501C401072C04C0880F991FAA1FBB1FB6
:1006C0000A94D2F76C017C01E094F094612C809143
:1006D00060026816F8F4C62DD0E0E0915C02F0915B
:1006E0005D02EC0FFD1F80810E9455022496CC0F05
:1006F000DD1FC650DE4F892B41F4888199818C29FA
:100700009D29998388836394E2CF888199818E2182
:100710009F21F7CFE0915E02F0915F02E00FF11FA1
:1007200061E080810E94810280915E0290915F026F
:10073000080F191F60E0F80180810E94B3027394D2
:100740009CCFCAEFD1E0FE018FEF9FEF278D30A144
:10075000232B21F4148E968F858F11A2369622E0DA
:10076000E633F20799F7F12C96E0D92E80916002DA
:10077000F81608F050C0E12C0F2D10E0000F111FEB
:100780000E5F1D4F20916102E21608F042C0F80191
:10079000608171810E2C02C0769567950A94E2F70C
:1007A000F29E900111242E0D311DEAEFF1E080E060
:1007B000458D568D2417350709F46AC08F5F36962C
:1007C0008A30B1F760FF23C0EAEFF1E090E080E00B
:1007D000448D411117C0E0915A02F0915B02E20F83
:1007E000F31F4081D89EF001D99EF00D1124E650F0
:1007F000FE4F448F368F258F10A2178E61E00E9426
:10080000AF0005C0019636968A30910509F7E3944A
:10081000B9CFF394ABCF80E099A19111892F26969F
:10082000F2E0C633DF07C1F79FB7F8944091590152
:1008300050915A0160915B0170915C019FBF4093A0
:1008400056025093570260935802709359028823BE
:10085000D9F080911B028823B9F080911902909100
:100860001A02019789F480911602DF91CF911F91AE
:100870000F91FF90EF90DF90CF90BF90AF909F903F
:100880008F907F906F9008951092660280E0EDCF78
:100890006170B5CF3FB7F8948091550190915601A2
:1008A000A0915701B091580126B5A89B05C02F3FD4
:1008B00019F00196A11DB11D3FBFBA2FA92F982F86
:1008C0008827BC01CD01620F711D811D911D42E081
:1008D000660F771F881F991F4A95D1F708950895CD
:1008E00090E080E008958F929F92AF92BF92EF9236
:1008F000FF920F931F93CF93DF93CDB7DEB7A197EE
:100900000FB6F894DEBF0FBECDBF7C01FA01CB015C
:1009100019A2223008F42AE08E010F5D1F4F822EAB
:10092000912CB12CA12CBF01A50194010E94B20809
:10093000F901CA016A3074F5605DD8016E938D01CA
:10094000232B242B252B79F790E080E0109789F05A
:10095000FD0101900020E9F73197AF014A1B5B0BC5
:10096000D701ED91FC910280F381E02DB801C70120
:100970000995A1960FB6F894DEBF0FBECDBFDF91EB
:10098000CF911F910F91FF90EF90BF90AF909F90EC
:100990008F900895695CD1CFFC0101900020E9F7A8
:1009A0003197AF01481B590BBC0189E692E00C94CA
:1009B0001F01CF93DF93EC0160E08E810E948102E2
:1009C00061E08E810E94810260E08E810E9481023E
:1009D0008BE891E00197F1F7DF91CF910895CF92E5
:1009E000DF92EF92FF920F931F93CF93DF936C01EF
:1009F0007C0187E0E80EF11CD0E0C0E0062F10E09B
:100A0000B8010C2E02C0759567950A94E2F76170E3
:100A1000F70181917F010E9481022196C430D105A6
:100A200079F7C601DF91CF911F910F91FF90EF9061
:100A3000DF90CF900C94D904CF92DF92EF92FF9287
:100A40000F931F93CF93DF93EC01F62E642F8C81CD
:100A50000E9481028D818F3F19F060E00E94810227
:100A60000F2D10E08F8584FF25C06E0187E0C80E32
:100A7000D11CF12CE12CB8010E2C02C075956795A4
:100A80000A94E2F76170F60181916F010E94810280
:100A9000FFEFEF1AFF0A88E0E816F10461F7CE01D4
:100AA000DF91CF911F910F91FF90EF90DF90CF904A
:100AB0000C94D904B80184E0759567958A95E1F79F
:100AC000CE010E94EF046F2DCE01DF91CF911F91D7
:100AD0000F91FF90EF90DF90CF900C94EF0440E0E7
:100AE000682F89E692E00C941C0581E00E946F0556
:100AF0008BE39FE10197F1F70895CF93DF93823065
:100B000029F49091780298609093780280937C0207
:100B100010927D0280E480937E0280E180937F02C8
:100B200080E58093800261E080916D020E94B302B3
:100B300080916E028F3F19F061E00E94B30261E084
:100B400080916F020E94B302C9E6D2E09E0129564D
:100B500032408091780284FD0BC084E090E02196C1
:100B60002817390744F461E08E810E94B302EECF6A
:100B700088E090E0F4CF8BE39DE00197F1F760E02F
:100B800080916D020E94810260E080916F020E945C
:100B9000810280916E028F3F19F060E00E94810215
:100BA0008091780284FD34C063E089E692E00E947F
:100BB000EF04CBE4D6E4CE010197F1F763E089E6D8
:100BC00092E00E94EF042197F1F763E089E692E05A
:100BD0000E94EF0483E592E00197F1F762E089E675
:100BE00092E00E94EF048091780280620E946F057B
:100BF00084E0809379028CE00E946F050E94750565
:100C000082E080937A0286E0DF91CF910C946F05A9
:100C100080620E946F058BE496E40197F1F7809162
:100C2000780280620E946F0583E592E00197F1F7F8
:100C30008091780280620E946F05D5CF41E00E94CA
:100C40001C0581E090E008951F93CF93DF93D0E0DF
:100C5000C0E01AE00E94F30290ED980F9A3088F4F9
:100C60001C9F90011D9F300D1124E901C80FD11D5B
:100C700087FDDA9541E0682F89E692E00E941C0525
:100C8000E9CF833239F7CE01DF91CF911F910895DB
:100C90001F920F920FB60F9211242F933F934F93F1
:100CA0005F936F937F938F939F93AF93BF93EF93D4
:100CB000FF938DE591E00E949D01FF91EF91BF911F
:100CC000AF919F918F917F916F915F914F913F91E4
:100CD0002F910F900FBE0F901F9018951F920F929B
:100CE0000FB60F9211242F938F939F93EF93FF933F
:100CF000E0916D01F0916E018081E0917301F091BE
:100D0000740182FD1BC09081809176018F5F8F738B
:100D100020917701821741F0E0917601F0E0E35AEB
:100D2000FE4F958F80937601FF91EF919F918F9168
:100D30002F910F900FBE0F901F9018958081F4CFC8
:100D40001F920F920FB60F9211242F933F938F9300
:100D50009F93AF93BF938091590190915A01A091B5
:100D60005B01B0915C013091540123E0230F2D37DA
:100D700058F50196A11DB11D20935401809359018E
:100D800090935A01A0935B01B0935C01809155014F
:100D900090915601A0915701B09158010196A11D63
:100DA000B11D8093550190935601A0935701B093C4
:100DB0005801BF91AF919F918F913F912F910F90CB
:100DC0000FBE0F901F90189526E8230F0296A11DC5
:100DD000B11DD2CF1092600110925F0188EE93E0B6
:100DE000A0E0B0E08093610190936201A093630161
:100DF000B09364018CE191E090935E0180935D017A
:100E000085EC90E090936A018093690184EC90E016
:100E100090936C0180936B0180EC90E090936E0155
:100E200080936D0181EC90E09093700180936F014D
:100E300082EC90E0909372018093710186EC90E0D7
:100E40009093740180937301109276011092770150
:100E5000109278011092790110926C0210926B023C
:100E600088E391E090936A02809369028DE0809319
:100E70006D028FEF80936E028CE080936F028BE0A7
:100E8000809370028AE08093710289E080937202FD
:100E900088E080937302109274021092750210928F
:100EA0007602109277021092780281E00E947D050E
:100EB0001092FC01109200021092FF0110920102A8
:100EC0008EE291E09093FB018093FA01E6E1F2E07B
:100ED0001082148213821582369682E0E235F8077A
:100EE000B9F784E091E090935D0280935C0280E02A
:100EF00091E090935F0280935E0284E080936002B1
:100F00008093610288E091E090935B0280935A02A3
:100F10008AE090E0909363028093620284EF91E014
:100F200090936502809364021092680210926702A7
:100F300010925602109257021092580210925902C3
:100F4000109266020895789484B5826084BD84B559
:100F5000816084BD85B5826085BD85B5816085BDB4
:100F600080916E00816080936E001092810080916C
:100F700081008260809381008091810081608093F4
:100F80008100809180008160809380008091B10019
:100F900084608093B1008091B00081608093B00044
:100FA00080917A00846080937A0080917A008260D8
:100FB00080937A0080917A00816080937A0080919A
:100FC0007A00806880937A001092C100E0916D01F0
:100FD000F0916E0182E08083E0916901F0916A01F5
:100FE0001082E0916B01F0916C018FEC8083109284
:100FF0007501E0917101F091720186E08083E091CA
:101000006F01F0917001808180618083E0916F01B8
:10101000F0917001808188608083E0916F01F09190
:101020007001808180688083E0916F01F091700190
:1010300080818F7D808382E00E947D05C0E0D0E0CA
:101040000E9475050E94F302882309F476C081345A
:1010500009F04CC080E491E00E94CC04E0917C0255
:10106000E23008F075C0E150F0E0E759FD4F8489A7
:1010700080680E946F050E9424066C0186E491E05E
:101080000E94CC040E942406C80ED91E20E6C21A73
:10109000D1080E9475058AE491E00E94CC040D2CD1
:1010A000000CEE08FF08F7FE55C041E06DE289E64E
:1010B00092E00E941C05F094E094D094C094C11C6E
:1010C000D11CE11CF11C2AE0B701A60189E692E0DF
:1010D0000E9473046DE28DE591E00E94BF012AE059
:1010E000B701A6018DE591E00E9473040E944A04B5
:1010F0004B015C0188EBC82E8BE0D82EE12CF12C43
:101100000E944A04681979098A099B09683E73405C
:1011100081059105A8F381E0C81AD108E108F1081A
:1011200028EE820E23E0921EA11CB11CC114D10432
:10113000E104F10429F70E947505209709F480CF96
:101140000E948901882309F47BCF0E94000078CF98
:10115000E1E08ACF2AE0B701A60189E692E00E9489
:101160007304BDCFA1E21A2EAA1BBB1BFD010DC04B
:10117000AA1FBB1FEE1FFF1FA217B307E407F50747
:1011800020F0A21BB30BE40BF50B661F771F881F23
:10119000991F1A9469F760957095809590959B01B9
:1011A000AC01BD01CF010895EE0FFF1F0590F49132
:0811B000E02D0994F894FFCF33
:1011B8000405060700010203313233413435364253
:1011C800373839432A30234400000000BF011F018B
:1011D8004C010C027D015B016F0100000000EF0271
:1011E800AF027E02000000001E061F0170046F049B
:1011F8004164643A2000202B2000526573756C749A
:041208003A20000088
:00000001FF
